:020000040000FA
:100000000A128A11F42F00308A000408840A820739
:10001000003448344D344334353438343834333490
:100020004C34203446344F3455344E344434003448
:1005AE00831603139114911C0800DA2A8316031381
:1005BE001114111C0800E02A831603131115111DC6
:1005CE000800E62A64008001840A04060319003438
:1005DE000406EA2A8316031311081F39031DF12A94
:1005EE00141D0800F12AF000700883120313930003
:1005FE00831603131418FF2A0A128A11F122080017
:10060E00831603139115141C0A2B8312031313085C
:10061E00F0007008F1000A128A11F1227108080028
:10062E0083120313071387138316031307138717F6
:10063E002030990020309800181590308312031343
:10064E009800080083160313871507168030940050
:10065E002830831203139400831603139101313053
:10066E009300831203138C110800F300F20170083B
:10067E0072020318080083160313981C422B72088B
:10068E007307F100710884008313000883120313AB
:10069E0099000130F1007108F2073E2BF2000A12A8
:1006AE008A11DD220A128A113C300A128A11FA22AC
:1006BE000A128A1172080A128A11FA220A128A1171
:1006CE0071080A128A11FA220A128A110A128A1162
:1006DE00E32208000430F2007208F300F930F20051
:1006EE007208FD0000000000FD0B792B6400013044
:1006FE00F302031D752B0130F0020030031CF103D1
:10070E00F1027008710403190800712BF6007608C7
:10071E00F5007508F10000300A128A1155230A12ED
:10072E008A117308F5007508F10001300A128A115A
:10073E0055230A128A117408F5007508F10002306B
:10074E000A128A115523080083120313850183169A
:10075E000313850183120313860183160313860187
:10076E008312031387018316031387018312031366
:10077E0088018316031388018312031389018316DC
:10078E00031389010800F300F401700884000A12B3
:10079E008A1103200A128A11003A0319EF2B7008EE
:1007AE0084000A128A1103200A128A11F1007408B9
:1007BE007307F20072088400710883138000013001
:1007CE00F1007108F0070130F1007108F407CC2B2D
:1007DE0074080800F3000A128A11DD220A128A1127
:1007EE003C300A128A11FA220A128A1173080A126E
:1007FE008A11FA220A128A110A128A11D7220A12B1
:10080E008A113D300A128A11FA220A128A110A122C
:10081E008A1107230A128A11F2007208F4000A12D2
:10082E008A11E32274080800F701F8010A128A11EE
:10083E0029230A128A110A300A128A11F1230A1286
:10084E008A11F5007508F6000B300A128A11F12391
:10085E000A128A11F5007508F7000C300A128A1177
:10086E00F1230A128A11F5007508F8004830760651
:10087E00031D4B2C34307706031D4B2C333078067A
:10088E00031D4B2C00300800013008000030FC0026
:10089E000030FB000030FA000030F900701C6B2CA9
:1008AE007408F907750803110318013E031DFA07B2
:1008BE00760803110318013E031DFB077708031189
:1008CE000318013E031DFC070130F8000310F40D60
:1008DE00F50DF60DF70DF80B6D2C01300310F30C22
:1008EE00F20CF10CF00CFF3E031D752C7308720414
:1008FE0071047004031D552C7C08F3007B08F20074
:10090E007A08F1007908F0000800FB00F701F80101
:10091E007008FF3EF90071080318013EFF3EFA0011
:10092E007A087802031D9D2C7908770203180800B7
:10093E0077087B07F2007208840083130008F30027
:10094E00F4017308F5007408F60079087B07F200CD
:10095E00720884000008F30077087B07F40074081F
:10096E008400730880007508F20079087B07F30095
:10097E0073088400720880000130F7070318F80A24
:10098E000030F8070130F9020030031CFA03FA02B6
:10099E00972C83120313A000213084000630FF0031
:1009AE0083138001840AFF0BD72C04300A128A119C
:1009BE00F1230A128A11F700770883120313A1009C
:1009CE0003300A128A11F1230A128A11F7007708EE
:1009DE0083120313A20008300A128A11F1230A129D
:1009EE008A11F700770883120313A30007300A1247
:1009FE008A11F1230A128A11F70077088312031362
:100A0E00A40006300A128A11F1230A128A11F70085
:100A1E00770883120313A50005300A128A11F123F9
:100A2E00F700770883120313A6002008840021081C
:100A3E0083138000840A220880007508840023082E
:100A4E008000840A2408800076088400250880002F
:100A5E00840A260880000800FA01F71F432DF409C6
:100A6E00F509F609F709F40A0319F50A0319F60A46
:100A7E000319F70AFA01FA0AF31F502DF009F109CA
:100A8E00F209F309F00A0319F10A0319F20A03191C
:100A9E00F30A73087204710470040319932DF9019B
:100AAE00F90AF31B682D0130F8000310F00DF10D5B
:100ABE00F20DF30DF80B5C2D0130F8007808F907F4
:100ACE00582D73087702031D762D72087602031DCA
:100ADE00762D71087502031D762D70087402031CA5
:100AEE00862D7008F4027108031C710FF50272084E
:100AFE00031C720FF6027308031C730FF70201300A
:100B0E000310F30CF20CF10CF00CFF3E031D872DBD
:100B1E000130F902031D682D7A080319A12DF4097D
:100B2E00F509F609F709F40A0319F50A0319F60A85
:100B3E000319F70A7708F3007608F2007508F1003A
:100B4E007408F000080083120313A101F31FBC2DDB
:100B5E00F009F109F209F309F00A0319F10A031970
:100B6E00F20A0319F30AA101A10AF71FCD2DF40908
:100B7E00F509F609F709F40A0319F50A0319F60A35
:100B8E000319F70A0130F8007808A1060030A50015
:100B9E000030A4000030A3000030A20073087204DD
:100BAE00710470040319222EA001A00AF31BED2D6F
:100BBE000130F8000310F00DF10DF20DF30DF80BEE
:100BCE00E12D0130F8007808A007DD2D0130F80086
:100BDE000310A20DA30DA40DA50DF80BEF2D730898
:100BEE007702031D042E72087602031D042E71086F
:100BFE007502031D042E70087402031C152E700856
:100C0E00F4027108031C710FF5027208031C720FB7
:100C1E00F6027308031C730FF7022214013003103F
:100C2E00F30CF20CF10CF00CFF3E031D162E0130EE
:100C3E00A002031DED2D21080319302EA209A309D0
:100C4E00A409A509A20A0319A30A0319A40A0319E0
:100C5E00A50A2508F3002408F2002308F100220853
:100C6E00F000080083120313AF01AE01A91F602E1E
:100C7E00FF30F300FF30F200FF30F100FF30F000E4
:100C8E002908F7002808F6002708F5002608F400C2
:100C9E000A128A114D240A128A1173088312031341
:100CAE00A9007208A8007108A7007008A600AE017E
:100CBE00AE0A29082804270426040319AC2E003096
:100CCE00F3000030F2000030F1000A30F000290885
:100CDE00F7002808F6002708F5002608F4000A1287
:100CEE008A1133250A128A117008303E83120313BB
:100CFE00AC002F082A07AD002D0884002C088313A2
:100D0E0080000130AC002C08AF070030F30000303B
:100D1E00F2000030F1000A30F0002908F700280830
:100D2E00F6002708F5002608F4000A128A11AA25F3
:100D3E000A128A11730883120313A9007208A800FD
:100D4E007108A7007008A600602E2E03031DBF2E8B
:100D5E002D30B22E3030AC002F082A07AD002D08F2
:100D6E0084002C08831380000130AC002C08AF07E0
:100D7E002B082F020318C62E2E080319B12E2F088A
:100D8E00AC00AD012C08F0002D08F1002A080A1263
:100D9E008A118C24831203132F082A07AC002C0807
:100DAE008400831380012F08080033308400103034
:100DBE00FF0083138001840AFF0BE02E0D30831297
:100DCE000313B0003008C9002030B0003008CA004C
:100DDE00C301C401C501C601C701C8010A128A11A7
:100DEE00AB230A128A110A128A1117230A128A11C8
:100DFE000A128A111B240A128A11003A031D2A2F85
:100E0E00013083120313B0003008F00033300A12A1
:100E1E008A11CA230A128A1183120313B1003108F0
:100E2E00CB004B08B0003008F00033300A128A11A4
:100E3E003C230A128A11F001F00A49300A128A1173
:100E4E003C230A128A11203083120313B00030089B
:100E5E00F300F40170300A128A118D230A128A11DE
:100E6E00453083120313B0003008F5004730B1004F
:100E7E003108F60043300A128A11D0240A128A1160
:100E8E00831203134308A6004408A7000030A71BD3
:100E9E00FF30A800A9003330B0003008AA0003309C
:100EAE00B1003108AB000A128A1139260A128A11D2
:100EBE0083120313B2003208CB004B08B000300887
:100ECE00F00033300A128A113C230A128A11F00103
:100EDE00F00A4A300A128A113C230A128A1183122E
:100EEE0003134508A6004608A7000030A71BFF30D5
:100EFE00A800A9003330B0003008AA000330B100BA
:100F0E003108AB000A128A1139260A128A1183128D
:100F1E000313B2003208CB004B08B0003008F000CB
:100F2E0033300A128A113C230A128A11F001F00A98
:100F3E004A300A128A113C230A128A1183120313B1
:100F4E004708A6004808A7000030A71BFF30A800DE
:100F5E00A9003330B0003008AA000330B1003108C8
:100F6E00AB000A128A1139260A128A118312031350
:100F7E00B2003208CB004B08B0003008F00033301E
:100F8E000A128A113C230A128A11F001F00A4A3021
:100F9E000A128A113C230A128A11F001F00A493012
:100FAE000A128A113C230A128A11031083120313A8
:100FBE00081D0314031CE72F831203130815EA2FD1
:100FCE00831203130811F430F0000130F1000A12FD
:100FDE008A1171230A128A11372FFD0183134C30A7
:100FEE00840062300A128A11E92283010A128A11E0
:020FFE00DC2EE7
:02400E003A3F37
:00000001FF
